{
  "contractName": "BancorGasPriceLimit",
  "abi": [
    {
      "constant": false,
      "inputs": [],
      "name": "acceptOwnership",
      "outputs": [],
      "payable": false,
      "stateMutability": "nonpayable",
      "type": "function"
    },
    {
      "constant": true,
      "inputs": [],
      "name": "owner",
      "outputs": [
        {
          "name": "",
          "type": "address"
        }
      ],
      "payable": false,
      "stateMutability": "view",
      "type": "function"
    },
    {
      "constant": true,
      "inputs": [],
      "name": "newOwner",
      "outputs": [
        {
          "name": "",
          "type": "address"
        }
      ],
      "payable": false,
      "stateMutability": "view",
      "type": "function"
    },
    {
      "constant": false,
      "inputs": [
        {
          "name": "_newOwner",
          "type": "address"
        }
      ],
      "name": "transferOwnership",
      "outputs": [],
      "payable": false,
      "stateMutability": "nonpayable",
      "type": "function"
    },
    {
      "constant": true,
      "inputs": [],
      "name": "gasPrice",
      "outputs": [
        {
          "name": "",
          "type": "uint256"
        }
      ],
      "payable": false,
      "stateMutability": "view",
      "type": "function"
    },
    {
      "inputs": [
        {
          "name": "_gasPrice",
          "type": "uint256"
        }
      ],
      "payable": false,
      "stateMutability": "nonpayable",
      "type": "constructor"
    },
    {
      "anonymous": false,
      "inputs": [
        {
          "indexed": true,
          "name": "_prevOwner",
          "type": "address"
        },
        {
          "indexed": true,
          "name": "_newOwner",
          "type": "address"
        }
      ],
      "name": "OwnerUpdate",
      "type": "event"
    },
    {
      "constant": false,
      "inputs": [
        {
          "name": "_gasPrice",
          "type": "uint256"
        }
      ],
      "name": "setGasPrice",
      "outputs": [],
      "payable": false,
      "stateMutability": "nonpayable",
      "type": "function"
    },
    {
      "constant": true,
      "inputs": [
        {
          "name": "_gasPrice",
          "type": "uint256"
        }
      ],
      "name": "validateGasPrice",
      "outputs": [],
      "payable": false,
      "stateMutability": "view",
      "type": "function"
    }
  ],
  "bytecode": "0x6080604052600060025534801561001557600080fd5b506040516020806103d9833981016040525160008054600160a060020a031916331781558190811161004657600080fd5b50600255610380806100596000396000f3006080604052600436106100825763ffffffff7c01000000000000000000000000000000000000000000000000000000006000350416636b4dff1f811461008757806379ba5097146100a15780638da5cb5b146100b6578063bf1fe420146100f4578063d4ee1d901461010c578063f2fde38b14610121578063fe173b971461014f575b600080fd5b34801561009357600080fd5b5061009f600435610176565b005b3480156100ad57600080fd5b5061009f610197565b3480156100c257600080fd5b506100cb610251565b6040805173ffffffffffffffffffffffffffffffffffffffff9092168252519081900360200190f35b34801561010057600080fd5b5061009f60043561026d565b34801561011857600080fd5b506100cb6102a2565b34801561012d57600080fd5b5061009f73ffffffffffffffffffffffffffffffffffffffff600435166102be565b34801561015b57600080fd5b5061016461034e565b60408051918252519081900360200190f35b806000811161018457600080fd5b60025482111561019357600080fd5b5050565b60015473ffffffffffffffffffffffffffffffffffffffff1633146101bb57600080fd5b6001546000805460405173ffffffffffffffffffffffffffffffffffffffff93841693909116917f343765429aea5a34b3ff6a3785a98a5abb2597aca87bfbb58632c173d585373a91a360018054600080547fffffffffffffffffffffffff000000000000000000000000000000000000000090811673ffffffffffffffffffffffffffffffffffffffff841617909155169055565b60005473ffffffffffffffffffffffffffffffffffffffff1681565b60005473ffffffffffffffffffffffffffffffffffffffff16331461028e57fe5b806000811161029c57600080fd5b50600255565b60015473ffffffffffffffffffffffffffffffffffffffff1681565b60005473ffffffffffffffffffffffffffffffffffffffff1633146102df57fe5b60005473ffffffffffffffffffffffffffffffffffffffff8281169116141561030757600080fd5b600180547fffffffffffffffffffffffff00000000000000000000000000000000000000001673ffffffffffffffffffffffffffffffffffffffff92909216919091179055565b600254815600a165627a7a723058202295028731ef636b4ab5c85786348b993a2515a2653bb9ef8801e8d5a2093ba50029",
  "source": "pragma solidity ^0.4.23;\nimport './interfaces/IBancorGasPriceLimit.sol';\nimport '../utility/Owned.sol';\nimport '../utility/Utils.sol';\n\n/*\n    The BancorGasPriceLimit contract serves as an extra front-running attack mitigation mechanism.\n    It sets a maximum gas price on all bancor conversions, which prevents users from \"cutting in line\"\n    in order to front-run other transactions.\n    The gas price limit is universal to all converters and it can be updated by the owner to be in line\n    with the network's current gas price.\n*/\ncontract BancorGasPriceLimit is IBancorGasPriceLimit, Owned, Utils {\n    uint256 public gasPrice = 0 wei;    // maximum gas price for bancor transactions\n    \n    /**\n        @dev constructor\n\n        @param _gasPrice    gas price limit\n    */\n    constructor(uint256 _gasPrice)\n        public\n        greaterThanZero(_gasPrice)\n    {\n        gasPrice = _gasPrice;\n    }\n\n    /*\n        @dev allows the owner to update the gas price limit\n\n        @param _gasPrice    new gas price limit\n    */\n    function setGasPrice(uint256 _gasPrice)\n        public\n        ownerOnly\n        greaterThanZero(_gasPrice)\n    {\n        gasPrice = _gasPrice;\n    }\n\n    /*\n        @dev validate that the given gas price is equal to the current network gas price\n\n        @param _gasPrice    tested gas price\n    */\n    function validateGasPrice(uint256 _gasPrice)\n        public\n        view\n        greaterThanZero(_gasPrice)\n    {\n        require(_gasPrice <= gasPrice);\n    }\n}\n",
  "sourcePath": "/Users/dbuarque/workspace/bitfy/contracts/converter/BancorGasPriceLimit.sol",
  "compiler": {
    "name": "solc",
    "version": "0.4.24+commit.e67f0147.Emscripten.clang"
  },
  "schemaVersion": "2.0.1",
  "updatedAt": "2018-08-18T21:02:59.445Z"
}