{
  "contractName": "BancorPriceFloor",
  "abi": [
    {
      "constant": true,
      "inputs": [],
      "name": "TOKEN_PRICE_D",
      "outputs": [
        {
          "name": "",
          "type": "uint256"
        }
      ],
      "payable": false,
      "stateMutability": "view",
      "type": "function"
    },
    {
      "constant": true,
      "inputs": [],
      "name": "TOKEN_PRICE_N",
      "outputs": [
        {
          "name": "",
          "type": "uint256"
        }
      ],
      "payable": false,
      "stateMutability": "view",
      "type": "function"
    },
    {
      "constant": true,
      "inputs": [],
      "name": "version",
      "outputs": [
        {
          "name": "",
          "type": "string"
        }
      ],
      "payable": false,
      "stateMutability": "view",
      "type": "function"
    },
    {
      "constant": false,
      "inputs": [
        {
          "name": "_token",
          "type": "address"
        },
        {
          "name": "_to",
          "type": "address"
        },
        {
          "name": "_amount",
          "type": "uint256"
        }
      ],
      "name": "withdrawTokens",
      "outputs": [],
      "payable": false,
      "stateMutability": "nonpayable",
      "type": "function"
    },
    {
      "constant": false,
      "inputs": [],
      "name": "acceptOwnership",
      "outputs": [],
      "payable": false,
      "stateMutability": "nonpayable",
      "type": "function"
    },
    {
      "constant": true,
      "inputs": [],
      "name": "owner",
      "outputs": [
        {
          "name": "",
          "type": "address"
        }
      ],
      "payable": false,
      "stateMutability": "view",
      "type": "function"
    },
    {
      "constant": true,
      "inputs": [],
      "name": "newOwner",
      "outputs": [
        {
          "name": "",
          "type": "address"
        }
      ],
      "payable": false,
      "stateMutability": "view",
      "type": "function"
    },
    {
      "constant": false,
      "inputs": [
        {
          "name": "_newOwner",
          "type": "address"
        }
      ],
      "name": "transferOwnership",
      "outputs": [],
      "payable": false,
      "stateMutability": "nonpayable",
      "type": "function"
    },
    {
      "constant": true,
      "inputs": [],
      "name": "token",
      "outputs": [
        {
          "name": "",
          "type": "address"
        }
      ],
      "payable": false,
      "stateMutability": "view",
      "type": "function"
    },
    {
      "inputs": [
        {
          "name": "_token",
          "type": "address"
        }
      ],
      "payable": false,
      "stateMutability": "nonpayable",
      "type": "constructor"
    },
    {
      "payable": true,
      "stateMutability": "payable",
      "type": "fallback"
    },
    {
      "anonymous": false,
      "inputs": [
        {
          "indexed": true,
          "name": "_prevOwner",
          "type": "address"
        },
        {
          "indexed": true,
          "name": "_newOwner",
          "type": "address"
        }
      ],
      "name": "OwnerUpdate",
      "type": "event"
    },
    {
      "constant": false,
      "inputs": [],
      "name": "sell",
      "outputs": [
        {
          "name": "amount",
          "type": "uint256"
        }
      ],
      "payable": false,
      "stateMutability": "nonpayable",
      "type": "function"
    },
    {
      "constant": false,
      "inputs": [
        {
          "name": "_amount",
          "type": "uint256"
        }
      ],
      "name": "withdraw",
      "outputs": [],
      "payable": false,
      "stateMutability": "nonpayable",
      "type": "function"
    }
  ],
  "bytecode": "0x60c0604052600360808190527f302e31000000000000000000000000000000000000000000000000000000000060a090815261003e91600291906100ab565b5034801561004b57600080fd5b506040516020806109ef833981016040525160008054600160a060020a0319163317905580600160a060020a038116151561008557600080fd5b5060038054600160a060020a031916600160a060020a0392909216919091179055610146565b828054600181600116156101000203166002900490600052602060002090601f016020900481019282601f106100ec57805160ff1916838001178555610119565b82800160010185558215610119579182015b828111156101195782518255916020019190600101906100fe565b50610125929150610129565b5090565b61014391905b80821115610125576000815560010161012f565b90565b61089a806101556000396000f3006080604052600436106100ae5763ffffffff7c01000000000000000000000000000000000000000000000000000000006000350416630d2806ad81146100b05780632e1a7d4d146100d757806345710074146100ef57806345cfad3e1461010457806354fd4d50146101195780635e35359e146101a357806379ba5097146101da5780638da5cb5b146101ef578063d4ee1d901461022d578063f2fde38b14610242578063fc0c546a14610270575b005b3480156100bc57600080fd5b506100c5610285565b60408051918252519081900360200190f35b3480156100e357600080fd5b506100ae60043561028a565b3480156100fb57600080fd5b506100c56102dc565b34801561011057600080fd5b506100c561048d565b34801561012557600080fd5b5061012e610492565b6040805160208082528351818301528351919283929083019185019080838360005b83811015610168578181015183820152602001610150565b50505050905090810190601f1680156101955780820380516001836020036101000a031916815260200191505b509250505060405180910390f35b3480156101af57600080fd5b506100ae73ffffffffffffffffffffffffffffffffffffffff6004358116906024351660443561053b565b3480156101e657600080fd5b506100ae6106a5565b3480156101fb57600080fd5b5061020461075f565b6040805173ffffffffffffffffffffffffffffffffffffffff9092168252519081900360200190f35b34801561023957600080fd5b5061020461077b565b34801561024e57600080fd5b506100ae73ffffffffffffffffffffffffffffffffffffffff60043516610797565b34801561027c57600080fd5b50610204610827565b606481565b60005473ffffffffffffffffffffffffffffffffffffffff1633146102ab57fe5b604051339082156108fc029083906000818181858888f193505050501580156102d8573d6000803e3d6000fd5b5050565b600354604080517fdd62ed3e00000000000000000000000000000000000000000000000000000000815233600482015230602482015290516000928392839273ffffffffffffffffffffffffffffffffffffffff9092169163dd62ed3e9160448082019260209290919082900301818787803b15801561035b57600080fd5b505af115801561036f573d6000803e3d6000fd5b505050506040513d602081101561038557600080fd5b5051600354604080517f23b872dd00000000000000000000000000000000000000000000000000000000815233600482015230602482015260448101849052905192945073ffffffffffffffffffffffffffffffffffffffff909116916323b872dd916064808201926020929091908290030181600087803b15801561040a57600080fd5b505af115801561041e573d6000803e3d6000fd5b505050506040513d602081101561043457600080fd5b5051151561043e57fe5b606461044b836001610843565b81151561045457fe5b6040519190049150339082156108fc029083906000818181858888f19350505050158015610486573d6000803e3d6000fd5b5092915050565b600181565b600280546040805160206001841615610100027fffffffffffffffffffffffffffffffffffffffffffffffffffffffffffffffff01909316849004601f810184900484028201840190925281815292918301828280156105335780601f1061050857610100808354040283529160200191610533565b820191906000526020600020905b81548152906001019060200180831161051657829003601f168201915b505050505081565b60005473ffffffffffffffffffffffffffffffffffffffff16331461055c57fe5b8273ffffffffffffffffffffffffffffffffffffffff8116151561057f57600080fd5b8273ffffffffffffffffffffffffffffffffffffffff811615156105a257600080fd5b8373ffffffffffffffffffffffffffffffffffffffff81163014156105c657600080fd5b8573ffffffffffffffffffffffffffffffffffffffff1663a9059cbb86866040518363ffffffff167c0100000000000000000000000000000000000000000000000000000000028152600401808373ffffffffffffffffffffffffffffffffffffffff1673ffffffffffffffffffffffffffffffffffffffff16815260200182815260200192505050602060405180830381600087803b15801561066957600080fd5b505af115801561067d573d6000803e3d6000fd5b505050506040513d602081101561069357600080fd5b5051151561069d57fe5b505050505050565b60015473ffffffffffffffffffffffffffffffffffffffff1633146106c957600080fd5b6001546000805460405173ffffffffffffffffffffffffffffffffffffffff93841693909116917f343765429aea5a34b3ff6a3785a98a5abb2597aca87bfbb58632c173d585373a91a360018054600080547fffffffffffffffffffffffff000000000000000000000000000000000000000090811673ffffffffffffffffffffffffffffffffffffffff841617909155169055565b60005473ffffffffffffffffffffffffffffffffffffffff1681565b60015473ffffffffffffffffffffffffffffffffffffffff1681565b60005473ffffffffffffffffffffffffffffffffffffffff1633146107b857fe5b60005473ffffffffffffffffffffffffffffffffffffffff828116911614156107e057600080fd5b600180547fffffffffffffffffffffffff00000000000000000000000000000000000000001673ffffffffffffffffffffffffffffffffffffffff92909216919091179055565b60035473ffffffffffffffffffffffffffffffffffffffff1681565b600082820283158061085f575082848281151561085c57fe5b04145b151561086757fe5b93925050505600a165627a7a7230582013169466d36610d59cbbacb4b357a8596de914f993ab27df94348b538d68d5bf0029",
  "source": "pragma solidity ^0.4.23;\nimport '../utility/TokenHolder.sol';\nimport '../utility/Owned.sol';\nimport '../utility/Utils.sol';\nimport '../token/interfaces/ISmartToken.sol';\n\n/*\n    BancorPriceFloor v0.1\n\n    The bancor price floor contract is a simple contract that allows selling smart tokens for a constant ETH price\n\n    'Owned' is specified here for readability reasons\n*/\ncontract BancorPriceFloor is Owned, TokenHolder {\n    uint256 public constant TOKEN_PRICE_N = 1;      // crowdsale price in wei (numerator)\n    uint256 public constant TOKEN_PRICE_D = 100;    // crowdsale price in wei (denominator)\n\n    string public version = '0.1';\n    ISmartToken public token; // smart token the contract allows selling\n\n    /**\n        @dev constructor\n\n        @param _token   smart token the contract allows selling\n    */\n    constructor(ISmartToken _token)\n        public\n        validAddress(_token)\n    {\n        token = _token;\n    }\n\n    /**\n        @dev sells the smart token for ETH\n        note that the function will sell the full allowance amount\n\n        @return ETH sent in return\n    */\n    function sell() public returns (uint256 amount) {\n        uint256 allowance = token.allowance(msg.sender, this); // get the full allowance amount\n        assert(token.transferFrom(msg.sender, this, allowance)); // transfer all tokens from the sender to the contract\n        uint256 etherValue = safeMul(allowance, TOKEN_PRICE_N) / TOKEN_PRICE_D; // calculate ETH value of the tokens\n        msg.sender.transfer(etherValue); // send the ETH amount to the seller\n        return etherValue;\n    }\n\n    /**\n        @dev withdraws ETH from the contract\n\n        @param _amount  amount of ETH to withdraw\n    */\n    function withdraw(uint256 _amount) public ownerOnly {\n        msg.sender.transfer(_amount); // send the amount\n    }\n\n    /**\n        @dev deposits ETH in the contract\n    */\n    function() public payable {\n    }\n}\n",
  "sourcePath": "/Users/dbuarque/workspace/bitfy/contracts/legacy/BancorPriceFloor.sol",
  "compiler": {
    "name": "solc",
    "version": "0.4.24+commit.e67f0147.Emscripten.clang"
  },
  "schemaVersion": "2.0.1",
  "updatedAt": "2018-08-18T19:31:46.120Z"
}