{
  "contractName": "ContractRegistry",
  "abi": [
    {
      "constant": true,
      "inputs": [
        {
          "name": "",
          "type": "uint256"
        }
      ],
      "name": "contractNames",
      "outputs": [
        {
          "name": "",
          "type": "string"
        }
      ],
      "payable": false,
      "stateMutability": "view",
      "type": "function"
    },
    {
      "constant": false,
      "inputs": [],
      "name": "acceptOwnership",
      "outputs": [],
      "payable": false,
      "stateMutability": "nonpayable",
      "type": "function"
    },
    {
      "constant": true,
      "inputs": [],
      "name": "owner",
      "outputs": [
        {
          "name": "",
          "type": "address"
        }
      ],
      "payable": false,
      "stateMutability": "view",
      "type": "function"
    },
    {
      "constant": true,
      "inputs": [],
      "name": "newOwner",
      "outputs": [
        {
          "name": "",
          "type": "address"
        }
      ],
      "payable": false,
      "stateMutability": "view",
      "type": "function"
    },
    {
      "constant": false,
      "inputs": [
        {
          "name": "_newOwner",
          "type": "address"
        }
      ],
      "name": "transferOwnership",
      "outputs": [],
      "payable": false,
      "stateMutability": "nonpayable",
      "type": "function"
    },
    {
      "inputs": [],
      "payable": false,
      "stateMutability": "nonpayable",
      "type": "constructor"
    },
    {
      "anonymous": false,
      "inputs": [
        {
          "indexed": true,
          "name": "_contractName",
          "type": "bytes32"
        },
        {
          "indexed": false,
          "name": "_contractAddress",
          "type": "address"
        }
      ],
      "name": "AddressUpdate",
      "type": "event"
    },
    {
      "anonymous": false,
      "inputs": [
        {
          "indexed": true,
          "name": "_prevOwner",
          "type": "address"
        },
        {
          "indexed": true,
          "name": "_newOwner",
          "type": "address"
        }
      ],
      "name": "OwnerUpdate",
      "type": "event"
    },
    {
      "constant": true,
      "inputs": [],
      "name": "itemCount",
      "outputs": [
        {
          "name": "",
          "type": "uint256"
        }
      ],
      "payable": false,
      "stateMutability": "view",
      "type": "function"
    },
    {
      "constant": true,
      "inputs": [
        {
          "name": "_contractName",
          "type": "bytes32"
        }
      ],
      "name": "addressOf",
      "outputs": [
        {
          "name": "",
          "type": "address"
        }
      ],
      "payable": false,
      "stateMutability": "view",
      "type": "function"
    },
    {
      "constant": false,
      "inputs": [
        {
          "name": "_contractName",
          "type": "bytes32"
        },
        {
          "name": "_contractAddress",
          "type": "address"
        }
      ],
      "name": "registerAddress",
      "outputs": [],
      "payable": false,
      "stateMutability": "nonpayable",
      "type": "function"
    },
    {
      "constant": false,
      "inputs": [
        {
          "name": "_contractName",
          "type": "bytes32"
        }
      ],
      "name": "unregisterAddress",
      "outputs": [],
      "payable": false,
      "stateMutability": "nonpayable",
      "type": "function"
    },
    {
      "constant": true,
      "inputs": [
        {
          "name": "_contractName",
          "type": "bytes32"
        }
      ],
      "name": "getAddress",
      "outputs": [
        {
          "name": "",
          "type": "address"
        }
      ],
      "payable": false,
      "stateMutability": "view",
      "type": "function"
    }
  ],
  "bytecode": "0x608060405234801561001057600080fd5b5060008054600160a060020a03191633179055610ab2806100326000396000f3006080604052600436106100a35763ffffffff7c010000000000000000000000000000000000000000000000000000000060003504166321f8a72181146100a85780632bbd9530146100e95780633ca6bb9214610103578063662de379146101905780636bfb0d01146101c157806379ba5097146101e85780638da5cb5b146101fd578063bb34534c14610212578063d4ee1d901461022a578063f2fde38b1461023f575b600080fd5b3480156100b457600080fd5b506100c060043561026d565b6040805173ffffffffffffffffffffffffffffffffffffffff9092168252519081900360200190f35b3480156100f557600080fd5b5061010160043561027e565b005b34801561010f57600080fd5b5061011b600435610429565b6040805160208082528351818301528351919283929083019185019080838360005b8381101561015557818101518382015260200161013d565b50505050905090810190601f1680156101825780820380516001836020036101000a031916815260200191505b509250505060405180910390f35b34801561019c57600080fd5b5061010160043573ffffffffffffffffffffffffffffffffffffffff602435166104ee565b3480156101cd57600080fd5b506101d6610688565b60408051918252519081900360200190f35b3480156101f457600080fd5b5061010161068f565b34801561020957600080fd5b506100c0610749565b34801561021e57600080fd5b506100c0600435610765565b34801561023657600080fd5b506100c061078d565b34801561024b57600080fd5b5061010173ffffffffffffffffffffffffffffffffffffffff600435166107a9565b600061027882610765565b92915050565b60005473ffffffffffffffffffffffffffffffffffffffff16331461029f57fe5b600081815260026020819052604090912080547fffffffffffffffffffffffff0000000000000000000000000000000000000000168155015460ff16156103ef5760008181526002602081905260409091200180547fffffffffffffffffffffffffffffffffffffffffffffffffffffffffffffff00169055600354600110156103aa57600380547fffffffffffffffffffffffffffffffffffffffffffffffffffffffffffffffff810190811061035357fe5b600091825260208083208484526002909152604090922060010154600380549390920192811061037f57fe5b9060005260206000200190805460018160011615610100020316600290046103a89291906108e6565b505b60038054906103db907fffffffffffffffffffffffffffffffffffffffffffffffffffffffffffffffff830161096b565b506000818152600260205260408120600101555b6040805160008152905182917ffc08d1253c81bcd5444fc7056ef1f5a5df4c9220b6fd70d7449267f1f0f29918919081900360200190a250565b600380548290811061043757fe5b600091825260209182902001805460408051601f60027fffffffffffffffffffffffffffffffffffffffffffffffffffffffffffffffff6101006001871615020190941693909304928301859004850281018501909152818152935090918301828280156104e65780601f106104bb576101008083540402835291602001916104e6565b820191906000526020600020905b8154815290600101906020018083116104c957829003601f168201915b505050505081565b6000805473ffffffffffffffffffffffffffffffffffffffff16331461051057fe5b8173ffffffffffffffffffffffffffffffffffffffff8116151561053357600080fd5b600084815260026020819052604090912080547fffffffffffffffffffffffff00000000000000000000000000000000000000001673ffffffffffffffffffffffffffffffffffffffff8616178155015460ff1615156106365760008481526002602081905260409091200180547fffffffffffffffffffffffffffffffffffffffffffffffffffffffffffffff0016600117905560036105d385610839565b8154600181018084556000938452602093849020835191946105fb9491909301920190610994565b5060008581526002602052604090207fffffffffffffffffffffffffffffffffffffffffffffffffffffffffffffffff820160019091015591505b6040805173ffffffffffffffffffffffffffffffffffffffff85168152905185917ffc08d1253c81bcd5444fc7056ef1f5a5df4c9220b6fd70d7449267f1f0f29918919081900360200190a250505050565b6003545b90565b60015473ffffffffffffffffffffffffffffffffffffffff1633146106b357600080fd5b6001546000805460405173ffffffffffffffffffffffffffffffffffffffff93841693909116917f343765429aea5a34b3ff6a3785a98a5abb2597aca87bfbb58632c173d585373a91a360018054600080547fffffffffffffffffffffffff000000000000000000000000000000000000000090811673ffffffffffffffffffffffffffffffffffffffff841617909155169055565b60005473ffffffffffffffffffffffffffffffffffffffff1681565b60009081526002602052604090205473ffffffffffffffffffffffffffffffffffffffff1690565b60015473ffffffffffffffffffffffffffffffffffffffff1681565b60005473ffffffffffffffffffffffffffffffffffffffff1633146107ca57fe5b60005473ffffffffffffffffffffffffffffffffffffffff828116911614156107f257600080fd5b600180547fffffffffffffffffffffffff00000000000000000000000000000000000000001673ffffffffffffffffffffffffffffffffffffffff92909216919091179055565b6040805160208082528183019092526060918291600091808201610400803883390190505091505b60208110156108df5783816020811061087657fe5b1a7f01000000000000000000000000000000000000000000000000000000000000000282828151811015156108a757fe5b9060200101907effffffffffffffffffffffffffffffffffffffffffffffffffffffffffffff1916908160001a905350600101610861565b5092915050565b828054600181600116156101000203166002900490600052602060002090601f016020900481019282601f1061091f578054855561095b565b8280016001018555821561095b57600052602060002091601f016020900482015b8281111561095b578254825591600101919060010190610940565b50610967929150610a02565b5090565b81548183558181111561098f5760008381526020902061098f918101908301610a1c565b505050565b828054600181600116156101000203166002900490600052602060002090601f016020900481019282601f106109d557805160ff191683800117855561095b565b8280016001018555821561095b579182015b8281111561095b5782518255916020019190600101906109e7565b61068c91905b808211156109675760008155600101610a08565b61068c91905b80821115610967576000610a368282610a3f565b50600101610a22565b50805460018160011615610100020316600290046000825580601f10610a655750610a83565b601f016020900490600052602060002090810190610a839190610a02565b505600a165627a7a72305820342ef571e4e0af5da237ac83f9bd477896f196941f609a3c865856cd601244490029",
  "source": "pragma solidity ^0.4.23;\nimport './Owned.sol';\nimport './Utils.sol';\nimport './interfaces/IContractRegistry.sol';\n\n/**\n    Contract Registry\n\n    The contract registry keeps contract addresses by name.\n    The owner can update contract addresses so that a contract name always points to the latest version\n    of the given contract.\n    Other contracts can query the registry to get updated addresses instead of depending on specific\n    addresses.\n\n    Note that contract names are limited to 32 bytes UTF8 encoded ASCII strings to optimize gas costs\n*/\ncontract ContractRegistry is IContractRegistry, Owned, Utils {\n    struct RegistryItem {\n        address contractAddress;    // contract address\n        uint256 nameIndex;          // index of the item in the list of contract names\n        bool isSet;                 // used to tell if the mapping element is defined\n    }\n\n    mapping (bytes32 => RegistryItem) private items;    // name -> RegistryItem mapping\n    string[] public contractNames;                      // list of all registered contract names\n\n    // triggered when an address pointed to by a contract name is modified\n    event AddressUpdate(bytes32 indexed _contractName, address _contractAddress);\n\n    /**\n        @dev constructor\n    */\n    constructor() public {\n    }\n\n    /**\n        @dev returns the number of items in the registry\n\n        @return number of items\n    */\n    function itemCount() public view returns (uint256) {\n        return contractNames.length;\n    }\n\n    /**\n        @dev returns the address associated with the given contract name\n\n        @param _contractName    contract name\n\n        @return contract address\n    */\n    function addressOf(bytes32 _contractName) public view returns (address) {\n        return items[_contractName].contractAddress;\n    }\n\n    /**\n        @dev registers a new address for the contract name in the registry\n\n        @param _contractName     contract name\n        @param _contractAddress  contract address\n    */\n    function registerAddress(bytes32 _contractName, address _contractAddress)\n        public\n        ownerOnly\n        validAddress(_contractAddress)\n    {\n        require(_contractName.length > 0); // validate input\n\n        // update the address in the registry\n        items[_contractName].contractAddress = _contractAddress;\n        \n        if (!items[_contractName].isSet) {\n            // mark the item as set\n            items[_contractName].isSet = true;\n            // add the contract name to the name list\n            uint256 i = contractNames.push(bytes32ToString(_contractName));\n            // update the item's index in the list\n            items[_contractName].nameIndex = i - 1;\n        }\n\n        // dispatch the address update event\n        emit AddressUpdate(_contractName, _contractAddress);\n    }\n\n    /**\n        @dev removes an existing contract address from the registry\n\n        @param _contractName contract name\n    */\n    function unregisterAddress(bytes32 _contractName) public ownerOnly {\n        require(_contractName.length > 0); // validate input\n\n        // remove the address from the registry\n        items[_contractName].contractAddress = address(0);\n\n        if (items[_contractName].isSet) {\n            // mark the item as empty\n            items[_contractName].isSet = false;\n\n            // if there are multiple items in the registry, move the last element to the deleted element's position\n            if (contractNames.length > 1)\n                contractNames[items[_contractName].nameIndex] = contractNames[contractNames.length - 1];\n\n            // remove the last element from the name list\n            contractNames.length--;\n            // zero the deleted element's index\n            items[_contractName].nameIndex = 0;\n        }\n\n        // dispatch the address update event\n        emit AddressUpdate(_contractName, address(0));\n    }\n\n    /**\n        @dev utility, converts bytes32 to a string\n        note that the bytes32 argument is assumed to be UTF8 encoded ASCII string\n\n        @return string representation of the given bytes32 argument\n    */\n    function bytes32ToString(bytes32 _bytes) private pure returns (string) {\n        bytes memory byteArray = new bytes(32);\n        for (uint256 i; i < 32; i++) {\n            byteArray[i] = _bytes[i];\n        }\n\n        return string(byteArray);\n    }\n\n    // deprecated, backward compatibility\n    function getAddress(bytes32 _contractName) public view returns (address) {\n        return addressOf(_contractName);\n    }\n}\n",
  "sourcePath": "/Users/dbuarque/workspace/bitfy/contracts/utility/ContractRegistry.sol",
  "compiler": {
    "name": "solc",
    "version": "0.4.24+commit.e67f0147.Emscripten.clang"
  },
  "schemaVersion": "2.0.1",
  "updatedAt": "2018-08-18T21:02:59.441Z"
}