{
  "contractName": "CrowdsaleController",
  "abi": [
    {
      "constant": true,
      "inputs": [],
      "name": "BTCS_ETHER_CAP",
      "outputs": [
        {
          "name": "",
          "type": "uint256"
        }
      ],
      "payable": false,
      "stateMutability": "view",
      "type": "function"
    },
    {
      "constant": true,
      "inputs": [],
      "name": "TOKEN_PRICE_D",
      "outputs": [
        {
          "name": "",
          "type": "uint256"
        }
      ],
      "payable": false,
      "stateMutability": "view",
      "type": "function"
    },
    {
      "constant": true,
      "inputs": [],
      "name": "DURATION",
      "outputs": [
        {
          "name": "",
          "type": "uint256"
        }
      ],
      "payable": false,
      "stateMutability": "view",
      "type": "function"
    },
    {
      "constant": false,
      "inputs": [
        {
          "name": "_newOwner",
          "type": "address"
        }
      ],
      "name": "transferTokenOwnership",
      "outputs": [],
      "payable": false,
      "stateMutability": "nonpayable",
      "type": "function"
    },
    {
      "constant": true,
      "inputs": [],
      "name": "endTime",
      "outputs": [
        {
          "name": "",
          "type": "uint256"
        }
      ],
      "payable": false,
      "stateMutability": "view",
      "type": "function"
    },
    {
      "constant": true,
      "inputs": [],
      "name": "totalEtherCap",
      "outputs": [
        {
          "name": "",
          "type": "uint256"
        }
      ],
      "payable": false,
      "stateMutability": "view",
      "type": "function"
    },
    {
      "constant": false,
      "inputs": [],
      "name": "acceptTokenOwnership",
      "outputs": [],
      "payable": false,
      "stateMutability": "nonpayable",
      "type": "function"
    },
    {
      "constant": true,
      "inputs": [],
      "name": "beneficiary",
      "outputs": [
        {
          "name": "",
          "type": "address"
        }
      ],
      "payable": false,
      "stateMutability": "view",
      "type": "function"
    },
    {
      "constant": false,
      "inputs": [
        {
          "name": "_token",
          "type": "address"
        },
        {
          "name": "_to",
          "type": "address"
        },
        {
          "name": "_amount",
          "type": "uint256"
        }
      ],
      "name": "withdrawFromToken",
      "outputs": [],
      "payable": false,
      "stateMutability": "nonpayable",
      "type": "function"
    },
    {
      "constant": true,
      "inputs": [],
      "name": "TOKEN_PRICE_N",
      "outputs": [
        {
          "name": "",
          "type": "uint256"
        }
      ],
      "payable": false,
      "stateMutability": "view",
      "type": "function"
    },
    {
      "constant": true,
      "inputs": [],
      "name": "version",
      "outputs": [
        {
          "name": "",
          "type": "string"
        }
      ],
      "payable": false,
      "stateMutability": "view",
      "type": "function"
    },
    {
      "constant": false,
      "inputs": [
        {
          "name": "_token",
          "type": "address"
        },
        {
          "name": "_to",
          "type": "address"
        },
        {
          "name": "_amount",
          "type": "uint256"
        }
      ],
      "name": "withdrawTokens",
      "outputs": [],
      "payable": false,
      "stateMutability": "nonpayable",
      "type": "function"
    },
    {
      "constant": true,
      "inputs": [],
      "name": "startTime",
      "outputs": [
        {
          "name": "",
          "type": "uint256"
        }
      ],
      "payable": false,
      "stateMutability": "view",
      "type": "function"
    },
    {
      "constant": false,
      "inputs": [],
      "name": "acceptOwnership",
      "outputs": [],
      "payable": false,
      "stateMutability": "nonpayable",
      "type": "function"
    },
    {
      "constant": false,
      "inputs": [
        {
          "name": "_disable",
          "type": "bool"
        }
      ],
      "name": "disableTokenTransfers",
      "outputs": [],
      "payable": false,
      "stateMutability": "nonpayable",
      "type": "function"
    },
    {
      "constant": true,
      "inputs": [],
      "name": "owner",
      "outputs": [
        {
          "name": "",
          "type": "address"
        }
      ],
      "payable": false,
      "stateMutability": "view",
      "type": "function"
    },
    {
      "constant": true,
      "inputs": [],
      "name": "realEtherCapHash",
      "outputs": [
        {
          "name": "",
          "type": "bytes32"
        }
      ],
      "payable": false,
      "stateMutability": "view",
      "type": "function"
    },
    {
      "constant": true,
      "inputs": [],
      "name": "totalEtherContributed",
      "outputs": [
        {
          "name": "",
          "type": "uint256"
        }
      ],
      "payable": false,
      "stateMutability": "view",
      "type": "function"
    },
    {
      "constant": true,
      "inputs": [],
      "name": "btcs",
      "outputs": [
        {
          "name": "",
          "type": "address"
        }
      ],
      "payable": false,
      "stateMutability": "view",
      "type": "function"
    },
    {
      "constant": true,
      "inputs": [],
      "name": "newOwner",
      "outputs": [
        {
          "name": "",
          "type": "address"
        }
      ],
      "payable": false,
      "stateMutability": "view",
      "type": "function"
    },
    {
      "constant": true,
      "inputs": [],
      "name": "MAX_GAS_PRICE",
      "outputs": [
        {
          "name": "",
          "type": "uint256"
        }
      ],
      "payable": false,
      "stateMutability": "view",
      "type": "function"
    },
    {
      "constant": false,
      "inputs": [
        {
          "name": "_newOwner",
          "type": "address"
        }
      ],
      "name": "transferOwnership",
      "outputs": [],
      "payable": false,
      "stateMutability": "nonpayable",
      "type": "function"
    },
    {
      "constant": true,
      "inputs": [],
      "name": "token",
      "outputs": [
        {
          "name": "",
          "type": "address"
        }
      ],
      "payable": false,
      "stateMutability": "view",
      "type": "function"
    },
    {
      "inputs": [
        {
          "name": "_token",
          "type": "address"
        },
        {
          "name": "_startTime",
          "type": "uint256"
        },
        {
          "name": "_beneficiary",
          "type": "address"
        },
        {
          "name": "_btcs",
          "type": "address"
        },
        {
          "name": "_realEtherCapHash",
          "type": "bytes32"
        }
      ],
      "payable": false,
      "stateMutability": "nonpayable",
      "type": "constructor"
    },
    {
      "payable": true,
      "stateMutability": "payable",
      "type": "fallback"
    },
    {
      "anonymous": false,
      "inputs": [
        {
          "indexed": true,
          "name": "_contributor",
          "type": "address"
        },
        {
          "indexed": false,
          "name": "_amount",
          "type": "uint256"
        },
        {
          "indexed": false,
          "name": "_return",
          "type": "uint256"
        }
      ],
      "name": "Contribution",
      "type": "event"
    },
    {
      "anonymous": false,
      "inputs": [
        {
          "indexed": true,
          "name": "_prevOwner",
          "type": "address"
        },
        {
          "indexed": true,
          "name": "_newOwner",
          "type": "address"
        }
      ],
      "name": "OwnerUpdate",
      "type": "event"
    },
    {
      "constant": true,
      "inputs": [
        {
          "name": "_cap",
          "type": "uint256"
        },
        {
          "name": "_key",
          "type": "uint256"
        }
      ],
      "name": "computeRealCap",
      "outputs": [
        {
          "name": "",
          "type": "bytes32"
        }
      ],
      "payable": false,
      "stateMutability": "pure",
      "type": "function"
    },
    {
      "constant": false,
      "inputs": [
        {
          "name": "_cap",
          "type": "uint256"
        },
        {
          "name": "_key",
          "type": "uint256"
        }
      ],
      "name": "enableRealCap",
      "outputs": [],
      "payable": false,
      "stateMutability": "nonpayable",
      "type": "function"
    },
    {
      "constant": true,
      "inputs": [
        {
          "name": "_contribution",
          "type": "uint256"
        }
      ],
      "name": "computeReturn",
      "outputs": [
        {
          "name": "",
          "type": "uint256"
        }
      ],
      "payable": false,
      "stateMutability": "pure",
      "type": "function"
    },
    {
      "constant": false,
      "inputs": [],
      "name": "contributeETH",
      "outputs": [
        {
          "name": "amount",
          "type": "uint256"
        }
      ],
      "payable": true,
      "stateMutability": "payable",
      "type": "function"
    },
    {
      "constant": false,
      "inputs": [],
      "name": "contributeBTCs",
      "outputs": [
        {
          "name": "amount",
          "type": "uint256"
        }
      ],
      "payable": true,
      "stateMutability": "payable",
      "type": "function"
    }
  ],
  "bytecode": "0x60c0604052600360808190527f302e31000000000000000000000000000000000000000000000000000000000060a09081526200003e91908162000184565b5060006004819055600581905569d3c21bcecceda100000060065560075560098054600160a060020a0319908116909155600a805490911690553480156200008557600080fd5b5060405160a080620013358339810160409081528151602083015191830151606084015160809094015160008054600160a060020a03191633179055919390918480600160a060020a0381161515620000dd57600080fd5b5060028054600160a060020a031916600160a060020a039283161790558390811615156200010a57600080fd5b82600160a060020a03811615156200012157600080fd5b854281116200012c57fe5b83600081116200013b57600080fd5b5050506004859055506212750090930160055560098054600160a060020a03938416600160a060020a031991821617909155600a80549290931691161790556008555062000229565b828054600181600116156101000203166002900490600052602060002090601f016020900481019282601f10620001c757805160ff1916838001178555620001f7565b82800160010185558215620001f7579182015b82811115620001f7578251825591602001919060010190620001da565b506200020592915062000209565b5090565b6200022691905b8082111562000205576000815560010162000210565b90565b6110fc80620002396000396000f3006080604052600436106101695763ffffffff7c010000000000000000000000000000000000000000000000000000000060003504166301d1c7fd81146101745780630d2806ad1461019b578063175323a8146101b05780631be05289146101b85780631fc3a519146101cd57806321e6b53d146101e55780633197cbb61461021557806334971dd61461022a57806338a5e0161461023f57806338af3eed1461025457806341a5b33d1461029257806345cfad3e146102c957806354fd4d50146102de5780635e35359e1461036857806378e979251461039f57806379ba5097146103b457806385d5e631146103c95780638da5cb5b146103e3578063aa4bdd3b146103f8578063ad03abc51461040d578063b3cffc6e14610428578063b591fc6914610430578063bb63224414610445578063d4ee1d901461045a578063e2119c801461046f578063e3bbb4f11461048a578063f2fde38b1461049f578063fc0c546a146104cd575b6101716104e2565b50005b34801561018057600080fd5b50610189610510565b60408051918252519081900360200190f35b3480156101a757600080fd5b5061018961051e565b6101896104e2565b3480156101c457600080fd5b50610189610523565b3480156101d957600080fd5b5061018960043561052a565b3480156101f157600080fd5b5061021373ffffffffffffffffffffffffffffffffffffffff60043516610549565b005b34801561022157600080fd5b506101896105f9565b34801561023657600080fd5b506101896105ff565b34801561024b57600080fd5b50610213610605565b34801561026057600080fd5b506102696106c6565b6040805173ffffffffffffffffffffffffffffffffffffffff9092168252519081900360200190f35b34801561029e57600080fd5b5061021373ffffffffffffffffffffffffffffffffffffffff600435811690602435166044356106e2565b3480156102d557600080fd5b506101896107a3565b3480156102ea57600080fd5b506102f36107a8565b6040805160208082528351818301528351919283929083019185019080838360005b8381101561032d578181015183820152602001610315565b50505050905090810190601f16801561035a5780820380516001836020036101000a031916815260200191505b509250505060405180910390f35b34801561037457600080fd5b5061021373ffffffffffffffffffffffffffffffffffffffff60043581169060243516604435610854565b3480156103ab57600080fd5b506101896109be565b3480156103c057600080fd5b506102136109c4565b3480156103d557600080fd5b506102136004351515610a7e565b3480156103ef57600080fd5b50610269610b13565b34801561040457600080fd5b50610189610b2f565b34801561041957600080fd5b50610213600435602435610b35565b610189610c5e565b34801561043c57600080fd5b50610189610cae565b34801561045157600080fd5b50610269610cb4565b34801561046657600080fd5b50610269610cd0565b34801561047b57600080fd5b50610189600435602435610cec565b34801561049657600080fd5b50610189610d07565b3480156104ab57600080fd5b5061021373ffffffffffffffffffffffffffffffffffffffff60043516610d10565b3480156104d957600080fd5b50610269610da0565b60006004546005548142101580156104f957508042105b151561050157fe5b610509610dbc565b9250505090565b690a968163f0a57b40000081565b606481565b6212750081565b60006001610539836064611096565b81151561054257fe5b0492915050565b60005473ffffffffffffffffffffffffffffffffffffffff16331461056a57fe5b600254604080517ff2fde38b00000000000000000000000000000000000000000000000000000000815273ffffffffffffffffffffffffffffffffffffffff84811660048301529151919092169163f2fde38b91602480830192600092919082900301818387803b1580156105de57600080fd5b505af11580156105f2573d6000803e3d6000fd5b5050505050565b60055481565b60065481565b60005473ffffffffffffffffffffffffffffffffffffffff16331461062657fe5b600260009054906101000a900473ffffffffffffffffffffffffffffffffffffffff1673ffffffffffffffffffffffffffffffffffffffff166379ba50976040518163ffffffff167c0100000000000000000000000000000000000000000000000000000000028152600401600060405180830381600087803b1580156106ac57600080fd5b505af11580156106c0573d6000803e3d6000fd5b50505050565b60095473ffffffffffffffffffffffffffffffffffffffff1681565b60005473ffffffffffffffffffffffffffffffffffffffff16331461070357fe5b600254604080517f5e35359e00000000000000000000000000000000000000000000000000000000815273ffffffffffffffffffffffffffffffffffffffff868116600483015285811660248301526044820185905291519190921691635e35359e91606480830192600092919082900301818387803b15801561078657600080fd5b505af115801561079a573d6000803e3d6000fd5b50505050505050565b600181565b6003805460408051602060026001851615610100027fffffffffffffffffffffffffffffffffffffffffffffffffffffffffffffffff0190941693909304601f8101849004840282018401909252818152929183018282801561084c5780601f106108215761010080835404028352916020019161084c565b820191906000526020600020905b81548152906001019060200180831161082f57829003601f168201915b505050505081565b60005473ffffffffffffffffffffffffffffffffffffffff16331461087557fe5b8273ffffffffffffffffffffffffffffffffffffffff8116151561089857600080fd5b8273ffffffffffffffffffffffffffffffffffffffff811615156108bb57600080fd5b8373ffffffffffffffffffffffffffffffffffffffff81163014156108df57600080fd5b8573ffffffffffffffffffffffffffffffffffffffff1663a9059cbb86866040518363ffffffff167c0100000000000000000000000000000000000000000000000000000000028152600401808373ffffffffffffffffffffffffffffffffffffffff1673ffffffffffffffffffffffffffffffffffffffff16815260200182815260200192505050602060405180830381600087803b15801561098257600080fd5b505af1158015610996573d6000803e3d6000fd5b505050506040513d60208110156109ac57600080fd5b505115156109b657fe5b505050505050565b60045481565b60015473ffffffffffffffffffffffffffffffffffffffff1633146109e857600080fd5b6001546000805460405173ffffffffffffffffffffffffffffffffffffffff93841693909116917f343765429aea5a34b3ff6a3785a98a5abb2597aca87bfbb58632c173d585373a91a360018054600080547fffffffffffffffffffffffff000000000000000000000000000000000000000090811673ffffffffffffffffffffffffffffffffffffffff841617909155169055565b60005473ffffffffffffffffffffffffffffffffffffffff163314610a9f57fe5b600254604080517f1608f18f0000000000000000000000000000000000000000000000000000000081528315156004820152905173ffffffffffffffffffffffffffffffffffffffff90921691631608f18f9160248082019260009290919082900301818387803b1580156105de57600080fd5b60005473ffffffffffffffffffffffffffffffffffffffff1681565b60085481565b60005473ffffffffffffffffffffffffffffffffffffffff163314610b5657fe5b600254604080517f8da5cb5b0000000000000000000000000000000000000000000000000000000081529051309273ffffffffffffffffffffffffffffffffffffffff1691638da5cb5b9160048083019260209291908290030181600087803b158015610bc257600080fd5b505af1158015610bd6573d6000803e3d6000fd5b505050506040513d6020811015610bec57600080fd5b505173ffffffffffffffffffffffffffffffffffffffff1614610c0b57fe5b600454600554814210158015610c2057508042105b1515610c2857fe5b60085484908490610c398383610cec565b14610c4357600080fd5b6006548610610c5157600080fd5b5050506006929092555050565b600a5460009073ffffffffffffffffffffffffffffffffffffffff163314610c8257fe5b34690a968163f0a57b400000610c9a600754836110c1565b1115610ca257fe5b60045442811161050157fe5b60075481565b600a5473ffffffffffffffffffffffffffffffffffffffff1681565b60015473ffffffffffffffffffffffffffffffffffffffff1681565b60408051928352602083019190915280519182900301902090565b640ba43b740081565b60005473ffffffffffffffffffffffffffffffffffffffff163314610d3157fe5b60005473ffffffffffffffffffffffffffffffffffffffff82811691161415610d5957600080fd5b600180547fffffffffffffffffffffffff00000000000000000000000000000000000000001673ffffffffffffffffffffffffffffffffffffffff92909216919091179055565b60025473ffffffffffffffffffffffffffffffffffffffff1681565b6000803073ffffffffffffffffffffffffffffffffffffffff16600260009054906101000a900473ffffffffffffffffffffffffffffffffffffffff1673ffffffffffffffffffffffffffffffffffffffff16638da5cb5b6040518163ffffffff167c0100000000000000000000000000000000000000000000000000000000028152600401602060405180830381600087803b158015610e5c57600080fd5b505af1158015610e70573d6000803e3d6000fd5b505050506040513d6020811015610e8657600080fd5b505173ffffffffffffffffffffffffffffffffffffffff1614610ea557fe5b34600654610eb5600754836110c1565b1115610ebd57fe5b640ba43b74003a1115610ecc57fe5b610ed53461052a565b60095460405191935073ffffffffffffffffffffffffffffffffffffffff16903480156108fc02916000818181858888f19350505050158015610f1c573d6000803e3d6000fd5b50610f29600754346110c1565b600755600254604080517f867904b400000000000000000000000000000000000000000000000000000000815233600482015260248101859052905173ffffffffffffffffffffffffffffffffffffffff9092169163867904b49160448082019260009290919082900301818387803b158015610fa557600080fd5b505af1158015610fb9573d6000803e3d6000fd5b5050600254600954604080517f867904b400000000000000000000000000000000000000000000000000000000815273ffffffffffffffffffffffffffffffffffffffff928316600482015260248101889052905191909216935063867904b49250604480830192600092919082900301818387803b15801561103b57600080fd5b505af115801561104f573d6000803e3d6000fd5b5050604080513481526020810186905281513394507f5f7675b09617d2c9fa4fd13058ee5877a9538f626b0308816736e83748a4504093509081900390910190a250919050565b60008282028315806110b257508284828115156110af57fe5b04145b15156110ba57fe5b9392505050565b6000828201838110156110ba57fe00a165627a7a72305820ba56309542b65cf8f5974f7b1d799b11dc0b3052c6fb07d30a8538ec0de12a710029",
  "source": "pragma solidity ^0.4.23;\nimport '../token/SmartTokenController.sol';\nimport '../token/interfaces/ISmartToken.sol';\n\n/*\n    Crowdsale v0.1\n\n    The crowdsale version of the smart token controller, allows contributing ether in exchange for Bancor tokens\n    The price remains fixed for the entire duration of the crowdsale\n    Note that 20% of the contributions are the BNT token's ETH connector balance\n*/\ncontract CrowdsaleController is SmartTokenController {\n    uint256 public constant DURATION = 14 days;                 // crowdsale duration\n    uint256 public constant TOKEN_PRICE_N = 1;                  // initial price in wei (numerator)\n    uint256 public constant TOKEN_PRICE_D = 100;                // initial price in wei (denominator)\n    uint256 public constant BTCS_ETHER_CAP = 50000 ether;       // maximum bitcoin suisse ether contribution\n    uint256 public constant MAX_GAS_PRICE = 50000000000 wei;    // maximum gas price for contribution transactions\n\n    string public version = '0.1';\n\n    uint256 public startTime = 0;                   // crowdsale start time (in seconds)\n    uint256 public endTime = 0;                     // crowdsale end time (in seconds)\n    uint256 public totalEtherCap = 1000000 ether;   // current ether contribution cap, initialized with a temp value as a safety mechanism until the real cap is revealed\n    uint256 public totalEtherContributed = 0;       // ether contributed so far\n    bytes32 public realEtherCapHash;                // ensures that the real cap is predefined on deployment and cannot be changed later\n    address public beneficiary = address(0);        // address to receive all ether contributions\n    address public btcs = address(0);               // bitcoin suisse address\n\n    // triggered on each contribution\n    event Contribution(address indexed _contributor, uint256 _amount, uint256 _return);\n\n    /**\n        @dev constructor\n\n        @param _token          smart token the crowdsale is for\n        @param _startTime      crowdsale start time\n        @param _beneficiary    address to receive all ether contributions\n        @param _btcs           bitcoin suisse address\n    */\n    constructor(ISmartToken _token, uint256 _startTime, address _beneficiary, address _btcs, bytes32 _realEtherCapHash)\n        public\n        SmartTokenController(_token)\n        validAddress(_beneficiary)\n        validAddress(_btcs)\n        earlierThan(_startTime)\n        greaterThanZero(uint256(_realEtherCapHash))\n    {\n        startTime = _startTime;\n        endTime = startTime + DURATION;\n        beneficiary = _beneficiary;\n        btcs = _btcs;\n        realEtherCapHash = _realEtherCapHash;\n    }\n\n    // verifies that the gas price is lower than 50 gwei\n    modifier validGasPrice() {\n        assert(tx.gasprice <= MAX_GAS_PRICE);\n        _;\n    }\n\n    // verifies that the ether cap is valid based on the key provided\n    modifier validEtherCap(uint256 _cap, uint256 _key) {\n        require(computeRealCap(_cap, _key) == realEtherCapHash);\n        _;\n    }\n\n    // ensures that it's earlier than the given time\n    modifier earlierThan(uint256 _time) {\n        assert(now < _time);\n        _;\n    }\n\n    // ensures that the current time is between _startTime (inclusive) and _endTime (exclusive)\n    modifier between(uint256 _startTime, uint256 _endTime) {\n        assert(now >= _startTime && now < _endTime);\n        _;\n    }\n\n    // ensures that the sender is bitcoin suisse\n    modifier btcsOnly() {\n        assert(msg.sender == btcs);\n        _;\n    }\n\n    // ensures that we didn't reach the ether cap\n    modifier etherCapNotReached(uint256 _contribution) {\n        assert(safeAdd(totalEtherContributed, _contribution) <= totalEtherCap);\n        _;\n    }\n\n    // ensures that we didn't reach the bitcoin suisse ether cap\n    modifier btcsEtherCapNotReached(uint256 _ethContribution) {\n        assert(safeAdd(totalEtherContributed, _ethContribution) <= BTCS_ETHER_CAP);\n        _;\n    }\n\n    /**\n        @dev computes the real cap based on the given cap & key\n\n        @param _cap    cap\n        @param _key    key used to compute the cap hash\n\n        @return computed real cap hash\n    */\n    function computeRealCap(uint256 _cap, uint256 _key) public pure returns (bytes32) {\n        return keccak256(_cap, _key);\n    }\n\n    /**\n        @dev enables the real cap defined on deployment\n\n        @param _cap    predefined cap\n        @param _key    key used to compute the cap hash\n    */\n    function enableRealCap(uint256 _cap, uint256 _key)\n        public\n        ownerOnly\n        active\n        between(startTime, endTime)\n        validEtherCap(_cap, _key)\n    {\n        require(_cap < totalEtherCap); // validate input\n        totalEtherCap = _cap;\n    }\n\n    /**\n        @dev computes the number of tokens that should be issued for a given contribution\n\n        @param _contribution    contribution amount\n\n        @return computed number of tokens\n    */\n    function computeReturn(uint256 _contribution) public pure returns (uint256) {\n        return safeMul(_contribution, TOKEN_PRICE_D) / TOKEN_PRICE_N;\n    }\n\n    /**\n        @dev ETH contribution\n        can only be called during the crowdsale\n\n        @return tokens issued in return\n    */\n    function contributeETH()\n        public\n        payable\n        between(startTime, endTime)\n        returns (uint256 amount)\n    {\n        return processContribution();\n    }\n\n    /**\n        @dev Contribution through BTCs (Bitcoin Suisse only)\n        can only be called before the crowdsale started\n\n        @return tokens issued in return\n    */\n    function contributeBTCs()\n        public\n        payable\n        btcsOnly\n        btcsEtherCapNotReached(msg.value)\n        earlierThan(startTime)\n        returns (uint256 amount)\n    {\n        return processContribution();\n    }\n\n    /**\n        @dev handles contribution logic\n        note that the Contribution event is triggered using the sender as the contributor, regardless of the actual contributor\n\n        @return tokens issued in return\n    */\n    function processContribution() private\n        active\n        etherCapNotReached(msg.value)\n        validGasPrice\n        returns (uint256 amount)\n    {\n        uint256 tokenAmount = computeReturn(msg.value);\n        beneficiary.transfer(msg.value); // transfer the ether to the beneficiary account\n        totalEtherContributed = safeAdd(totalEtherContributed, msg.value); // update the total contribution amount\n        token.issue(msg.sender, tokenAmount); // issue new funds to the contributor in the smart token\n        token.issue(beneficiary, tokenAmount); // issue tokens to the beneficiary\n\n        emit Contribution(msg.sender, msg.value, tokenAmount);\n        return tokenAmount;\n    }\n\n    // fallback\n    function() payable public {\n        contributeETH();\n    }\n}\n",
  "sourcePath": "/Users/dbuarque/workspace/bitfy/contracts/crowdsale/CrowdsaleController.sol",
  "compiler": {
    "name": "solc",
    "version": "0.4.24+commit.e67f0147.Emscripten.clang"
  },
  "schemaVersion": "2.0.1",
  "updatedAt": "2018-08-20T11:40:03.908Z"
}