{
  "contractName": "Managed",
  "abi": [
    {
      "constant": true,
      "inputs": [],
      "name": "newManager",
      "outputs": [
        {
          "name": "",
          "type": "address"
        }
      ],
      "payable": false,
      "stateMutability": "view",
      "type": "function"
    },
    {
      "constant": true,
      "inputs": [],
      "name": "manager",
      "outputs": [
        {
          "name": "",
          "type": "address"
        }
      ],
      "payable": false,
      "stateMutability": "view",
      "type": "function"
    },
    {
      "constant": false,
      "inputs": [],
      "name": "acceptOwnership",
      "outputs": [],
      "payable": false,
      "stateMutability": "nonpayable",
      "type": "function"
    },
    {
      "constant": true,
      "inputs": [],
      "name": "owner",
      "outputs": [
        {
          "name": "",
          "type": "address"
        }
      ],
      "payable": false,
      "stateMutability": "view",
      "type": "function"
    },
    {
      "constant": true,
      "inputs": [],
      "name": "newOwner",
      "outputs": [
        {
          "name": "",
          "type": "address"
        }
      ],
      "payable": false,
      "stateMutability": "view",
      "type": "function"
    },
    {
      "constant": false,
      "inputs": [
        {
          "name": "_newOwner",
          "type": "address"
        }
      ],
      "name": "transferOwnership",
      "outputs": [],
      "payable": false,
      "stateMutability": "nonpayable",
      "type": "function"
    },
    {
      "inputs": [],
      "payable": false,
      "stateMutability": "nonpayable",
      "type": "constructor"
    },
    {
      "anonymous": false,
      "inputs": [
        {
          "indexed": true,
          "name": "_prevManager",
          "type": "address"
        },
        {
          "indexed": true,
          "name": "_newManager",
          "type": "address"
        }
      ],
      "name": "ManagerUpdate",
      "type": "event"
    },
    {
      "anonymous": false,
      "inputs": [
        {
          "indexed": true,
          "name": "_prevOwner",
          "type": "address"
        },
        {
          "indexed": true,
          "name": "_newOwner",
          "type": "address"
        }
      ],
      "name": "OwnerUpdate",
      "type": "event"
    },
    {
      "constant": false,
      "inputs": [
        {
          "name": "_newManager",
          "type": "address"
        }
      ],
      "name": "transferManagement",
      "outputs": [],
      "payable": false,
      "stateMutability": "nonpayable",
      "type": "function"
    },
    {
      "constant": false,
      "inputs": [],
      "name": "acceptManagement",
      "outputs": [],
      "payable": false,
      "stateMutability": "nonpayable",
      "type": "function"
    }
  ],
  "bytecode": "0x608060405234801561001057600080fd5b506000805433600160a060020a031991821681178355600280549092161790556104f090819061004090396000f30060806040526004361061008d5763ffffffff7c0100000000000000000000000000000000000000000000000000000000600035041663429060298114610092578063481c6a75146100d057806379ba5097146100e55780638da5cb5b146100fc578063c8c2fe6c14610111578063d4ee1d9014610126578063e4edf8521461013b578063f2fde38b14610169575b600080fd5b34801561009e57600080fd5b506100a7610197565b6040805173ffffffffffffffffffffffffffffffffffffffff9092168252519081900360200190f35b3480156100dc57600080fd5b506100a76101b3565b3480156100f157600080fd5b506100fa6101cf565b005b34801561010857600080fd5b506100a7610289565b34801561011d57600080fd5b506100fa6102a5565b34801561013257600080fd5b506100a7610361565b34801561014757600080fd5b506100fa73ffffffffffffffffffffffffffffffffffffffff6004351661037d565b34801561017557600080fd5b506100fa73ffffffffffffffffffffffffffffffffffffffff60043516610434565b60035473ffffffffffffffffffffffffffffffffffffffff1681565b60025473ffffffffffffffffffffffffffffffffffffffff1681565b60015473ffffffffffffffffffffffffffffffffffffffff1633146101f357600080fd5b6001546000805460405173ffffffffffffffffffffffffffffffffffffffff93841693909116917f343765429aea5a34b3ff6a3785a98a5abb2597aca87bfbb58632c173d585373a91a360018054600080547fffffffffffffffffffffffff000000000000000000000000000000000000000090811673ffffffffffffffffffffffffffffffffffffffff841617909155169055565b60005473ffffffffffffffffffffffffffffffffffffffff1681565b60035473ffffffffffffffffffffffffffffffffffffffff1633146102c957600080fd5b60035460025460405173ffffffffffffffffffffffffffffffffffffffff92831692909116907fbe4cc281795971a471c980e842627a7f1ea3892ddfce8c5b6357cd2611c1973290600090a360038054600280547fffffffffffffffffffffffff000000000000000000000000000000000000000090811673ffffffffffffffffffffffffffffffffffffffff841617909155169055565b60015473ffffffffffffffffffffffffffffffffffffffff1681565b60005473ffffffffffffffffffffffffffffffffffffffff163314806103ba575060025473ffffffffffffffffffffffffffffffffffffffff1633145b15156103c557600080fd5b60025473ffffffffffffffffffffffffffffffffffffffff828116911614156103ed57600080fd5b600380547fffffffffffffffffffffffff00000000000000000000000000000000000000001673ffffffffffffffffffffffffffffffffffffffff92909216919091179055565b60005473ffffffffffffffffffffffffffffffffffffffff16331461045557fe5b60005473ffffffffffffffffffffffffffffffffffffffff8281169116141561047d57600080fd5b600180547fffffffffffffffffffffffff00000000000000000000000000000000000000001673ffffffffffffffffffffffffffffffffffffffff929092169190911790555600a165627a7a72305820ac29b07faeab7260fcdad9153bde6921fbfd89c068eb23e92e714df9980ce4e90029",
  "source": "pragma solidity ^0.4.23;\nimport './Owned.sol';\n\n/*\n    Provides support and utilities for contract management\n    Note that a managed contract must also have an owner\n*/\ncontract Managed is Owned {\n    address public manager;\n    address public newManager;\n\n    event ManagerUpdate(address indexed _prevManager, address indexed _newManager);\n\n    /**\n        @dev constructor\n    */\n    constructor() public {\n        manager = msg.sender;\n    }\n\n    // allows execution by the manager only\n    modifier managerOnly {\n        assert(msg.sender == manager);\n        _;\n    }\n\n    // allows execution by either the owner or the manager only\n    modifier ownerOrManagerOnly {\n        require(msg.sender == owner || msg.sender == manager);\n        _;\n    }\n\n    /**\n        @dev allows transferring the contract management\n        the new manager still needs to accept the transfer\n        can only be called by the contract manager\n\n        @param _newManager    new contract manager\n    */\n    function transferManagement(address _newManager) public ownerOrManagerOnly {\n        require(_newManager != manager);\n        newManager = _newManager;\n    }\n\n    /**\n        @dev used by a new manager to accept a management transfer\n    */\n    function acceptManagement() public {\n        require(msg.sender == newManager);\n        emit ManagerUpdate(manager, newManager);\n        manager = newManager;\n        newManager = address(0);\n    }\n}\n",
  "sourcePath": "/Users/dbuarque/workspace/bitfy/contracts/utility/Managed.sol",
  "compiler": {
    "name": "solc",
    "version": "0.4.24+commit.e67f0147.Emscripten.clang"
  },
  "schemaVersion": "2.0.1",
  "updatedAt": "2018-08-20T11:40:03.871Z"
}