{
  "contractName": "TestFeatures",
  "abi": [
    {
      "constant": true,
      "inputs": [],
      "name": "features",
      "outputs": [
        {
          "name": "",
          "type": "address"
        }
      ],
      "payable": false,
      "stateMutability": "view",
      "type": "function"
    },
    {
      "inputs": [
        {
          "name": "_features",
          "type": "address"
        }
      ],
      "payable": false,
      "stateMutability": "nonpayable",
      "type": "constructor"
    },
    {
      "constant": false,
      "inputs": [
        {
          "name": "_features",
          "type": "uint256"
        },
        {
          "name": "_enable",
          "type": "bool"
        }
      ],
      "name": "enableFeatures",
      "outputs": [],
      "payable": false,
      "stateMutability": "nonpayable",
      "type": "function"
    }
  ],
  "bytecode": "0x608060405234801561001057600080fd5b506040516020806101d9833981016040525160008054600160a060020a03909216600160a060020a0319909216919091179055610187806100526000396000f30060806040526004361061004b5763ffffffff7c01000000000000000000000000000000000000000000000000000000006000350416632b52141681146100505780632c7077c01461008e575b600080fd5b34801561005c57600080fd5b506100656100ad565b6040805173ffffffffffffffffffffffffffffffffffffffff9092168252519081900360200190f35b34801561009a57600080fd5b506100ab60043560243515156100c9565b005b60005473ffffffffffffffffffffffffffffffffffffffff1681565b60008054604080517f2c7077c0000000000000000000000000000000000000000000000000000000008152600481018690528415156024820152905173ffffffffffffffffffffffffffffffffffffffff90921692632c7077c09260448084019382900301818387803b15801561013f57600080fd5b505af1158015610153573d6000803e3d6000fd5b5050505050505600a165627a7a7230582070dcd927b97636918f1f231f47447e5df0ba702cdbd187c282a9f14e3963bee40029",
  "source": "pragma solidity ^0.4.23;\nimport '../utility/interfaces/IContractFeatures.sol';\n\n/*\n    Test helper that uses the ContractFeatures contract\n*/\ncontract TestFeatures {\n    IContractFeatures public features;\n\n    constructor(IContractFeatures _features) public {\n        features = _features;\n    }\n\n    function enableFeatures(uint256 _features, bool _enable) public {\n        features.enableFeatures(_features, _enable);\n    }\n}\n",
  "sourcePath": "/Users/dbuarque/workspace/bitfy/contracts/helpers/TestFeatures.sol",
  "compiler": {
    "name": "solc",
    "version": "0.4.24+commit.e67f0147.Emscripten.clang"
  },
  "schemaVersion": "2.0.1",
  "updatedAt": "2018-08-18T19:31:46.119Z"
}