{
  "contractName": "TestCrowdsaleController",
  "abi": [
    {
      "constant": true,
      "inputs": [],
      "name": "BTCS_ETHER_CAP",
      "outputs": [
        {
          "name": "",
          "type": "uint256"
        }
      ],
      "payable": false,
      "stateMutability": "view",
      "type": "function"
    },
    {
      "constant": true,
      "inputs": [],
      "name": "TOKEN_PRICE_D",
      "outputs": [
        {
          "name": "",
          "type": "uint256"
        }
      ],
      "payable": false,
      "stateMutability": "view",
      "type": "function"
    },
    {
      "constant": false,
      "inputs": [],
      "name": "contributeETH",
      "outputs": [
        {
          "name": "amount",
          "type": "uint256"
        }
      ],
      "payable": true,
      "stateMutability": "payable",
      "type": "function"
    },
    {
      "constant": true,
      "inputs": [],
      "name": "DURATION",
      "outputs": [
        {
          "name": "",
          "type": "uint256"
        }
      ],
      "payable": false,
      "stateMutability": "view",
      "type": "function"
    },
    {
      "constant": true,
      "inputs": [
        {
          "name": "_contribution",
          "type": "uint256"
        }
      ],
      "name": "computeReturn",
      "outputs": [
        {
          "name": "",
          "type": "uint256"
        }
      ],
      "payable": false,
      "stateMutability": "pure",
      "type": "function"
    },
    {
      "constant": false,
      "inputs": [
        {
          "name": "_newOwner",
          "type": "address"
        }
      ],
      "name": "transferTokenOwnership",
      "outputs": [],
      "payable": false,
      "stateMutability": "nonpayable",
      "type": "function"
    },
    {
      "constant": true,
      "inputs": [],
      "name": "endTime",
      "outputs": [
        {
          "name": "",
          "type": "uint256"
        }
      ],
      "payable": false,
      "stateMutability": "view",
      "type": "function"
    },
    {
      "constant": true,
      "inputs": [],
      "name": "totalEtherCap",
      "outputs": [
        {
          "name": "",
          "type": "uint256"
        }
      ],
      "payable": false,
      "stateMutability": "view",
      "type": "function"
    },
    {
      "constant": false,
      "inputs": [],
      "name": "acceptTokenOwnership",
      "outputs": [],
      "payable": false,
      "stateMutability": "nonpayable",
      "type": "function"
    },
    {
      "constant": true,
      "inputs": [],
      "name": "beneficiary",
      "outputs": [
        {
          "name": "",
          "type": "address"
        }
      ],
      "payable": false,
      "stateMutability": "view",
      "type": "function"
    },
    {
      "constant": false,
      "inputs": [
        {
          "name": "_token",
          "type": "address"
        },
        {
          "name": "_to",
          "type": "address"
        },
        {
          "name": "_amount",
          "type": "uint256"
        }
      ],
      "name": "withdrawFromToken",
      "outputs": [],
      "payable": false,
      "stateMutability": "nonpayable",
      "type": "function"
    },
    {
      "constant": true,
      "inputs": [],
      "name": "TOKEN_PRICE_N",
      "outputs": [
        {
          "name": "",
          "type": "uint256"
        }
      ],
      "payable": false,
      "stateMutability": "view",
      "type": "function"
    },
    {
      "constant": true,
      "inputs": [],
      "name": "version",
      "outputs": [
        {
          "name": "",
          "type": "string"
        }
      ],
      "payable": false,
      "stateMutability": "view",
      "type": "function"
    },
    {
      "constant": false,
      "inputs": [
        {
          "name": "_token",
          "type": "address"
        },
        {
          "name": "_to",
          "type": "address"
        },
        {
          "name": "_amount",
          "type": "uint256"
        }
      ],
      "name": "withdrawTokens",
      "outputs": [],
      "payable": false,
      "stateMutability": "nonpayable",
      "type": "function"
    },
    {
      "constant": true,
      "inputs": [],
      "name": "startTime",
      "outputs": [
        {
          "name": "",
          "type": "uint256"
        }
      ],
      "payable": false,
      "stateMutability": "view",
      "type": "function"
    },
    {
      "constant": false,
      "inputs": [],
      "name": "acceptOwnership",
      "outputs": [],
      "payable": false,
      "stateMutability": "nonpayable",
      "type": "function"
    },
    {
      "constant": false,
      "inputs": [
        {
          "name": "_disable",
          "type": "bool"
        }
      ],
      "name": "disableTokenTransfers",
      "outputs": [],
      "payable": false,
      "stateMutability": "nonpayable",
      "type": "function"
    },
    {
      "constant": true,
      "inputs": [],
      "name": "owner",
      "outputs": [
        {
          "name": "",
          "type": "address"
        }
      ],
      "payable": false,
      "stateMutability": "view",
      "type": "function"
    },
    {
      "constant": true,
      "inputs": [],
      "name": "realEtherCapHash",
      "outputs": [
        {
          "name": "",
          "type": "bytes32"
        }
      ],
      "payable": false,
      "stateMutability": "view",
      "type": "function"
    },
    {
      "constant": false,
      "inputs": [
        {
          "name": "_cap",
          "type": "uint256"
        },
        {
          "name": "_key",
          "type": "uint256"
        }
      ],
      "name": "enableRealCap",
      "outputs": [],
      "payable": false,
      "stateMutability": "nonpayable",
      "type": "function"
    },
    {
      "constant": false,
      "inputs": [],
      "name": "contributeBTCs",
      "outputs": [
        {
          "name": "amount",
          "type": "uint256"
        }
      ],
      "payable": true,
      "stateMutability": "payable",
      "type": "function"
    },
    {
      "constant": true,
      "inputs": [],
      "name": "totalEtherContributed",
      "outputs": [
        {
          "name": "",
          "type": "uint256"
        }
      ],
      "payable": false,
      "stateMutability": "view",
      "type": "function"
    },
    {
      "constant": true,
      "inputs": [],
      "name": "btcs",
      "outputs": [
        {
          "name": "",
          "type": "address"
        }
      ],
      "payable": false,
      "stateMutability": "view",
      "type": "function"
    },
    {
      "constant": true,
      "inputs": [],
      "name": "newOwner",
      "outputs": [
        {
          "name": "",
          "type": "address"
        }
      ],
      "payable": false,
      "stateMutability": "view",
      "type": "function"
    },
    {
      "constant": true,
      "inputs": [
        {
          "name": "_cap",
          "type": "uint256"
        },
        {
          "name": "_key",
          "type": "uint256"
        }
      ],
      "name": "computeRealCap",
      "outputs": [
        {
          "name": "",
          "type": "bytes32"
        }
      ],
      "payable": false,
      "stateMutability": "pure",
      "type": "function"
    },
    {
      "constant": true,
      "inputs": [],
      "name": "MAX_GAS_PRICE",
      "outputs": [
        {
          "name": "",
          "type": "uint256"
        }
      ],
      "payable": false,
      "stateMutability": "view",
      "type": "function"
    },
    {
      "constant": true,
      "inputs": [],
      "name": "BTCS_ETHER_CAP_SMALL",
      "outputs": [
        {
          "name": "",
          "type": "uint256"
        }
      ],
      "payable": false,
      "stateMutability": "view",
      "type": "function"
    },
    {
      "constant": false,
      "inputs": [
        {
          "name": "_newOwner",
          "type": "address"
        }
      ],
      "name": "transferOwnership",
      "outputs": [],
      "payable": false,
      "stateMutability": "nonpayable",
      "type": "function"
    },
    {
      "constant": true,
      "inputs": [],
      "name": "token",
      "outputs": [
        {
          "name": "",
          "type": "address"
        }
      ],
      "payable": false,
      "stateMutability": "view",
      "type": "function"
    },
    {
      "inputs": [
        {
          "name": "_token",
          "type": "address"
        },
        {
          "name": "_startTime",
          "type": "uint256"
        },
        {
          "name": "_beneficiary",
          "type": "address"
        },
        {
          "name": "_btcs",
          "type": "address"
        },
        {
          "name": "_realEtherCapHash",
          "type": "bytes32"
        },
        {
          "name": "_startTimeOverride",
          "type": "uint256"
        }
      ],
      "payable": false,
      "stateMutability": "nonpayable",
      "type": "constructor"
    },
    {
      "payable": true,
      "stateMutability": "payable",
      "type": "fallback"
    },
    {
      "anonymous": false,
      "inputs": [
        {
          "indexed": true,
          "name": "_contributor",
          "type": "address"
        },
        {
          "indexed": false,
          "name": "_amount",
          "type": "uint256"
        },
        {
          "indexed": false,
          "name": "_return",
          "type": "uint256"
        }
      ],
      "name": "Contribution",
      "type": "event"
    },
    {
      "anonymous": false,
      "inputs": [
        {
          "indexed": true,
          "name": "_prevOwner",
          "type": "address"
        },
        {
          "indexed": true,
          "name": "_newOwner",
          "type": "address"
        }
      ],
      "name": "OwnerUpdate",
      "type": "event"
    }
  ],
  "bytecode": "0x60c0604052600360808190527f302e31000000000000000000000000000000000000000000000000000000000060a09081526200003e9190816200019a565b5060006004819055600581905569d3c21bcecceda100000060065560075560098054600160a060020a0319908116909155600a805490911690553480156200008557600080fd5b5060405160c0806200137583398101604090815281516020830151918301516060840151608085015160a09095015160008054600160a060020a031916331790559294919290919085858585858480600160a060020a0381161515620000ea57600080fd5b5060028054600160a060020a031916600160a060020a039283161790558390811615156200011757600080fd5b82600160a060020a03811615156200012e57600080fd5b854281116200013957fe5b83600081116200014857600080fd5b505060098054600160a060020a03968716600160a060020a031991821617909155600a8054959096169416939093179093556008555050506004829055506212750001600555506200023f9350505050565b828054600181600116156101000203166002900490600052602060002090601f016020900481019282601f10620001dd57805160ff19168380011785556200020d565b828001600101855582156200020d579182015b828111156200020d578251825591602001919060010190620001f0565b506200021b9291506200021f565b5090565b6200023c91905b808211156200021b576000815560010162000226565b90565b611126806200024f6000396000f3006080604052600436106101745763ffffffff7c010000000000000000000000000000000000000000000000000000000060003504166301d1c7fd811461017f5780630d2806ad146101a6578063175323a8146101bb5780631be05289146101c35780631fc3a519146101d857806321e6b53d146101f05780633197cbb61461022057806334971dd61461023557806338a5e0161461024a57806338af3eed1461025f57806341a5b33d1461029d57806345cfad3e146102d457806354fd4d50146102e95780635e35359e1461037357806378e97925146103aa57806379ba5097146103bf57806385d5e631146103d45780638da5cb5b146103ee578063aa4bdd3b14610403578063ad03abc514610418578063b3cffc6e14610433578063b591fc691461043b578063bb63224414610450578063d4ee1d9014610465578063e2119c801461047a578063e3bbb4f114610495578063ebaf2f3a146104aa578063f2fde38b146104bf578063fc0c546a146104ed575b61017c610502565b50005b34801561018b57600080fd5b50610194610530565b60408051918252519081900360200190f35b3480156101b257600080fd5b5061019461053e565b610194610502565b3480156101cf57600080fd5b50610194610543565b3480156101e457600080fd5b5061019460043561054a565b3480156101fc57600080fd5b5061021e73ffffffffffffffffffffffffffffffffffffffff60043516610569565b005b34801561022c57600080fd5b50610194610619565b34801561024157600080fd5b5061019461061f565b34801561025657600080fd5b5061021e610625565b34801561026b57600080fd5b506102746106e6565b6040805173ffffffffffffffffffffffffffffffffffffffff9092168252519081900360200190f35b3480156102a957600080fd5b5061021e73ffffffffffffffffffffffffffffffffffffffff60043581169060243516604435610702565b3480156102e057600080fd5b506101946107c3565b3480156102f557600080fd5b506102fe6107c8565b6040805160208082528351818301528351919283929083019185019080838360005b83811015610338578181015183820152602001610320565b50505050905090810190601f1680156103655780820380516001836020036101000a031916815260200191505b509250505060405180910390f35b34801561037f57600080fd5b5061021e73ffffffffffffffffffffffffffffffffffffffff60043581169060243516604435610874565b3480156103b657600080fd5b506101946109de565b3480156103cb57600080fd5b5061021e6109e4565b3480156103e057600080fd5b5061021e6004351515610a9e565b3480156103fa57600080fd5b50610274610b33565b34801561040f57600080fd5b50610194610b4f565b34801561042457600080fd5b5061021e600435602435610b55565b610194610c7e565b34801561044757600080fd5b50610194610ccc565b34801561045c57600080fd5b50610274610cd2565b34801561047157600080fd5b50610274610cee565b34801561048657600080fd5b50610194600435602435610d0a565b3480156104a157600080fd5b50610194610d25565b3480156104b657600080fd5b50610194610d2e565b3480156104cb57600080fd5b5061021e73ffffffffffffffffffffffffffffffffffffffff60043516610d3a565b3480156104f957600080fd5b50610274610dca565b600060045460055481421015801561051957508042105b151561052157fe5b610529610de6565b9250505090565b690a968163f0a57b40000081565b606481565b6212750081565b600060016105598360646110c0565b81151561056257fe5b0492915050565b60005473ffffffffffffffffffffffffffffffffffffffff16331461058a57fe5b600254604080517ff2fde38b00000000000000000000000000000000000000000000000000000000815273ffffffffffffffffffffffffffffffffffffffff84811660048301529151919092169163f2fde38b91602480830192600092919082900301818387803b1580156105fe57600080fd5b505af1158015610612573d6000803e3d6000fd5b5050505050565b60055481565b60065481565b60005473ffffffffffffffffffffffffffffffffffffffff16331461064657fe5b600260009054906101000a900473ffffffffffffffffffffffffffffffffffffffff1673ffffffffffffffffffffffffffffffffffffffff166379ba50976040518163ffffffff167c0100000000000000000000000000000000000000000000000000000000028152600401600060405180830381600087803b1580156106cc57600080fd5b505af11580156106e0573d6000803e3d6000fd5b50505050565b60095473ffffffffffffffffffffffffffffffffffffffff1681565b60005473ffffffffffffffffffffffffffffffffffffffff16331461072357fe5b600254604080517f5e35359e00000000000000000000000000000000000000000000000000000000815273ffffffffffffffffffffffffffffffffffffffff868116600483015285811660248301526044820185905291519190921691635e35359e91606480830192600092919082900301818387803b1580156107a657600080fd5b505af11580156107ba573d6000803e3d6000fd5b50505050505050565b600181565b6003805460408051602060026001851615610100027fffffffffffffffffffffffffffffffffffffffffffffffffffffffffffffffff0190941693909304601f8101849004840282018401909252818152929183018282801561086c5780601f106108415761010080835404028352916020019161086c565b820191906000526020600020905b81548152906001019060200180831161084f57829003601f168201915b505050505081565b60005473ffffffffffffffffffffffffffffffffffffffff16331461089557fe5b8273ffffffffffffffffffffffffffffffffffffffff811615156108b857600080fd5b8273ffffffffffffffffffffffffffffffffffffffff811615156108db57600080fd5b8373ffffffffffffffffffffffffffffffffffffffff81163014156108ff57600080fd5b8573ffffffffffffffffffffffffffffffffffffffff1663a9059cbb86866040518363ffffffff167c0100000000000000000000000000000000000000000000000000000000028152600401808373ffffffffffffffffffffffffffffffffffffffff1673ffffffffffffffffffffffffffffffffffffffff16815260200182815260200192505050602060405180830381600087803b1580156109a257600080fd5b505af11580156109b6573d6000803e3d6000fd5b505050506040513d60208110156109cc57600080fd5b505115156109d657fe5b505050505050565b60045481565b60015473ffffffffffffffffffffffffffffffffffffffff163314610a0857600080fd5b6001546000805460405173ffffffffffffffffffffffffffffffffffffffff93841693909116917f343765429aea5a34b3ff6a3785a98a5abb2597aca87bfbb58632c173d585373a91a360018054600080547fffffffffffffffffffffffff000000000000000000000000000000000000000090811673ffffffffffffffffffffffffffffffffffffffff841617909155169055565b60005473ffffffffffffffffffffffffffffffffffffffff163314610abf57fe5b600254604080517f1608f18f0000000000000000000000000000000000000000000000000000000081528315156004820152905173ffffffffffffffffffffffffffffffffffffffff90921691631608f18f9160248082019260009290919082900301818387803b1580156105fe57600080fd5b60005473ffffffffffffffffffffffffffffffffffffffff1681565b60085481565b60005473ffffffffffffffffffffffffffffffffffffffff163314610b7657fe5b600254604080517f8da5cb5b0000000000000000000000000000000000000000000000000000000081529051309273ffffffffffffffffffffffffffffffffffffffff1691638da5cb5b9160048083019260209291908290030181600087803b158015610be257600080fd5b505af1158015610bf6573d6000803e3d6000fd5b505050506040513d6020811015610c0c57600080fd5b505173ffffffffffffffffffffffffffffffffffffffff1614610c2b57fe5b600454600554814210158015610c4057508042105b1515610c4857fe5b60085484908490610c598383610d0a565b14610c6357600080fd5b6006548610610c7157600080fd5b5050506006929092555050565b600a5460009073ffffffffffffffffffffffffffffffffffffffff163314610ca257fe5b34671bc16d674ec80000610cb8600754836110eb565b1115610cc057fe5b60045442811161052157fe5b60075481565b600a5473ffffffffffffffffffffffffffffffffffffffff1681565b60015473ffffffffffffffffffffffffffffffffffffffff1681565b60408051928352602083019190915280519182900301902090565b640ba43b740081565b671bc16d674ec8000081565b60005473ffffffffffffffffffffffffffffffffffffffff163314610d5b57fe5b60005473ffffffffffffffffffffffffffffffffffffffff82811691161415610d8357600080fd5b600180547fffffffffffffffffffffffff00000000000000000000000000000000000000001673ffffffffffffffffffffffffffffffffffffffff92909216919091179055565b60025473ffffffffffffffffffffffffffffffffffffffff1681565b6000803073ffffffffffffffffffffffffffffffffffffffff16600260009054906101000a900473ffffffffffffffffffffffffffffffffffffffff1673ffffffffffffffffffffffffffffffffffffffff16638da5cb5b6040518163ffffffff167c0100000000000000000000000000000000000000000000000000000000028152600401602060405180830381600087803b158015610e8657600080fd5b505af1158015610e9a573d6000803e3d6000fd5b505050506040513d6020811015610eb057600080fd5b505173ffffffffffffffffffffffffffffffffffffffff1614610ecf57fe5b34600654610edf600754836110eb565b1115610ee757fe5b640ba43b74003a1115610ef657fe5b610eff3461054a565b60095460405191935073ffffffffffffffffffffffffffffffffffffffff16903480156108fc02916000818181858888f19350505050158015610f46573d6000803e3d6000fd5b50610f53600754346110eb565b600755600254604080517f867904b400000000000000000000000000000000000000000000000000000000815233600482015260248101859052905173ffffffffffffffffffffffffffffffffffffffff9092169163867904b49160448082019260009290919082900301818387803b158015610fcf57600080fd5b505af1158015610fe3573d6000803e3d6000fd5b5050600254600954604080517f867904b400000000000000000000000000000000000000000000000000000000815273ffffffffffffffffffffffffffffffffffffffff928316600482015260248101889052905191909216935063867904b49250604480830192600092919082900301818387803b15801561106557600080fd5b505af1158015611079573d6000803e3d6000fd5b5050604080513481526020810186905281513394507f5f7675b09617d2c9fa4fd13058ee5877a9538f626b0308816736e83748a4504093509081900390910190a250919050565b60008282028315806110dc57508284828115156110d957fe5b04145b15156110e457fe5b9392505050565b6000828201838110156110e457fe00a165627a7a723058200f4219616442b5197b6453f51c7f05e06414669dd7c1108fa8d89a23cc40fa170029",
  "source": "pragma solidity ^0.4.23;\nimport '../crowdsale/CrowdsaleController.sol';\n\n/*\n    Test crowdsale controller with start time < now < end time\n*/\ncontract TestCrowdsaleController is CrowdsaleController {\n    uint256 public constant BTCS_ETHER_CAP_SMALL = 2 ether; // maximum bitcoin suisse ether contribution\n\n    constructor(\n        ISmartToken _token,\n        uint256 _startTime,\n        address _beneficiary,\n        address _btcs,\n        bytes32 _realEtherCapHash,\n        uint256 _startTimeOverride)\n        public\n        CrowdsaleController(_token, _startTime, _beneficiary, _btcs, _realEtherCapHash)\n    {\n        startTime = _startTimeOverride;\n        endTime = startTime + DURATION;\n    }\n\n    modifier btcsEtherCapNotReached(uint256 _ethContribution) {\n        assert(safeAdd(totalEtherContributed, _ethContribution) <= BTCS_ETHER_CAP_SMALL);\n        _;\n    }\n}\n",
  "sourcePath": "/Users/dbuarque/workspace/bitfy/contracts/helpers/TestCrowdsaleController.sol",
  "compiler": {
    "name": "solc",
    "version": "0.4.24+commit.e67f0147.Emscripten.clang"
  },
  "schemaVersion": "2.0.1",
  "updatedAt": "2018-08-18T19:31:46.119Z"
}