{
  "contractName": "Whitelist",
  "abi": [
    {
      "constant": false,
      "inputs": [],
      "name": "acceptOwnership",
      "outputs": [],
      "payable": false,
      "stateMutability": "nonpayable",
      "type": "function"
    },
    {
      "constant": true,
      "inputs": [],
      "name": "owner",
      "outputs": [
        {
          "name": "",
          "type": "address"
        }
      ],
      "payable": false,
      "stateMutability": "view",
      "type": "function"
    },
    {
      "constant": true,
      "inputs": [],
      "name": "newOwner",
      "outputs": [
        {
          "name": "",
          "type": "address"
        }
      ],
      "payable": false,
      "stateMutability": "view",
      "type": "function"
    },
    {
      "constant": false,
      "inputs": [
        {
          "name": "_newOwner",
          "type": "address"
        }
      ],
      "name": "transferOwnership",
      "outputs": [],
      "payable": false,
      "stateMutability": "nonpayable",
      "type": "function"
    },
    {
      "inputs": [],
      "payable": false,
      "stateMutability": "nonpayable",
      "type": "constructor"
    },
    {
      "anonymous": false,
      "inputs": [
        {
          "indexed": false,
          "name": "_address",
          "type": "address"
        }
      ],
      "name": "AddressAddition",
      "type": "event"
    },
    {
      "anonymous": false,
      "inputs": [
        {
          "indexed": false,
          "name": "_address",
          "type": "address"
        }
      ],
      "name": "AddressRemoval",
      "type": "event"
    },
    {
      "anonymous": false,
      "inputs": [
        {
          "indexed": true,
          "name": "_prevOwner",
          "type": "address"
        },
        {
          "indexed": true,
          "name": "_newOwner",
          "type": "address"
        }
      ],
      "name": "OwnerUpdate",
      "type": "event"
    },
    {
      "constant": true,
      "inputs": [
        {
          "name": "_address",
          "type": "address"
        }
      ],
      "name": "isWhitelisted",
      "outputs": [
        {
          "name": "",
          "type": "bool"
        }
      ],
      "payable": false,
      "stateMutability": "view",
      "type": "function"
    },
    {
      "constant": false,
      "inputs": [
        {
          "name": "_address",
          "type": "address"
        }
      ],
      "name": "addAddress",
      "outputs": [],
      "payable": false,
      "stateMutability": "nonpayable",
      "type": "function"
    },
    {
      "constant": false,
      "inputs": [
        {
          "name": "_addresses",
          "type": "address[]"
        }
      ],
      "name": "addAddresses",
      "outputs": [],
      "payable": false,
      "stateMutability": "nonpayable",
      "type": "function"
    },
    {
      "constant": false,
      "inputs": [
        {
          "name": "_address",
          "type": "address"
        }
      ],
      "name": "removeAddress",
      "outputs": [],
      "payable": false,
      "stateMutability": "nonpayable",
      "type": "function"
    },
    {
      "constant": false,
      "inputs": [
        {
          "name": "_addresses",
          "type": "address[]"
        }
      ],
      "name": "removeAddresses",
      "outputs": [],
      "payable": false,
      "stateMutability": "nonpayable",
      "type": "function"
    }
  ],
  "bytecode": "0x608060405234801561001057600080fd5b5060008054600160a060020a03191633179055610699806100326000396000f3006080604052600436106100985763ffffffff7c01000000000000000000000000000000000000000000000000000000006000350416633628731c811461009d57806338eada1c146100f45780633af32abf146101225780634ba79dfe1461016457806379ba5097146101925780638da5cb5b146101a7578063a84eb999146101e5578063d4ee1d901461023a578063f2fde38b1461024f575b600080fd5b3480156100a957600080fd5b50604080516020600480358082013583810280860185019096528085526100f29536959394602494938501929182918501908490808284375094975061027d9650505050505050565b005b34801561010057600080fd5b506100f273ffffffffffffffffffffffffffffffffffffffff600435166102b5565b34801561012e57600080fd5b5061015073ffffffffffffffffffffffffffffffffffffffff600435166103b3565b604080519115158252519081900360200190f35b34801561017057600080fd5b506100f273ffffffffffffffffffffffffffffffffffffffff600435166103de565b34801561019e57600080fd5b506100f26104b7565b3480156101b357600080fd5b506101bc610571565b6040805173ffffffffffffffffffffffffffffffffffffffff9092168252519081900360200190f35b3480156101f157600080fd5b50604080516020600480358082013583810280860185019096528085526100f29536959394602494938501929182918501908490808284375094975061058d9650505050505050565b34801561024657600080fd5b506101bc6105c1565b34801561025b57600080fd5b506100f273ffffffffffffffffffffffffffffffffffffffff600435166105dd565b60005b81518110156102b1576102a9828281518110151561029a57fe5b906020019060200201516102b5565b600101610280565b5050565b60005473ffffffffffffffffffffffffffffffffffffffff1633146102d657fe5b8073ffffffffffffffffffffffffffffffffffffffff811615156102f957600080fd5b73ffffffffffffffffffffffffffffffffffffffff821660009081526002602052604090205460ff161561032c576102b1565b73ffffffffffffffffffffffffffffffffffffffff821660008181526002602090815260409182902080547fffffffffffffffffffffffffffffffffffffffffffffffffffffffffffffff00166001179055815192835290517f2c51f80053e9ee7518567e43b2f8e8b48f50cf10daede6d11893df9ad49e4a8a9281900390910190a15050565b73ffffffffffffffffffffffffffffffffffffffff1660009081526002602052604090205460ff1690565b60005473ffffffffffffffffffffffffffffffffffffffff1633146103ff57fe5b73ffffffffffffffffffffffffffffffffffffffff811660009081526002602052604090205460ff161515610433576104b4565b73ffffffffffffffffffffffffffffffffffffffff811660008181526002602090815260409182902080547fffffffffffffffffffffffffffffffffffffffffffffffffffffffffffffff00169055815192835290517f7ec2df28665f8610f9b1d2f74faae35dbc6bd58684a1194a6dfc31584953f03b9281900390910190a15b50565b60015473ffffffffffffffffffffffffffffffffffffffff1633146104db57600080fd5b6001546000805460405173ffffffffffffffffffffffffffffffffffffffff93841693909116917f343765429aea5a34b3ff6a3785a98a5abb2597aca87bfbb58632c173d585373a91a360018054600080547fffffffffffffffffffffffff000000000000000000000000000000000000000090811673ffffffffffffffffffffffffffffffffffffffff841617909155169055565b60005473ffffffffffffffffffffffffffffffffffffffff1681565b60005b81518110156102b1576105b982828151811015156105aa57fe5b906020019060200201516103de565b600101610590565b60015473ffffffffffffffffffffffffffffffffffffffff1681565b60005473ffffffffffffffffffffffffffffffffffffffff1633146105fe57fe5b60005473ffffffffffffffffffffffffffffffffffffffff8281169116141561062657600080fd5b600180547fffffffffffffffffffffffff00000000000000000000000000000000000000001673ffffffffffffffffffffffffffffffffffffffff929092169190911790555600a165627a7a72305820e167f2842a62f848f627e277eac893d132ea6efeeca3e4f21b4b82166d3046a70029",
  "source": "pragma solidity ^0.4.23;\nimport './Owned.sol';\nimport './Utils.sol';\nimport './interfaces/IWhitelist.sol';\n\n/**\n    Whitelist\n\n    The contract manages a list of whitelisted addresses\n*/\ncontract Whitelist is IWhitelist, Owned, Utils {\n    mapping (address => bool) private whitelist;\n\n    event AddressAddition(address _address);\n    event AddressRemoval(address _address);\n\n    /**\n        @dev constructor\n    */\n    constructor() public {\n    }\n\n    // allows execution by a whitelisted address only\n    modifier whitelistedOnly() {\n        require(whitelist[msg.sender]);\n        _;\n    }\n\n    /**\n        @dev returns true if a given address is whitelisted, false if not\n\n        @param _address address to check\n\n        @return true if the address is whitelisted, false if not\n    */\n    function isWhitelisted(address _address) public view returns (bool) {\n        return whitelist[_address];\n    }\n\n    /**\n        @dev adds a given address to the whitelist\n\n        @param _address address to add\n    */\n    function addAddress(address _address)\n        ownerOnly\n        validAddress(_address)\n        public \n    {\n        if (whitelist[_address]) // checks if the address is already whitelisted\n            return;\n\n        whitelist[_address] = true;\n        emit AddressAddition(_address);\n    }\n\n    /**\n        @dev adds a list of addresses to the whitelist\n\n        @param _addresses addresses to add\n    */\n    function addAddresses(address[] _addresses) public {\n        for (uint256 i = 0; i < _addresses.length; i++) {\n            addAddress(_addresses[i]);\n        }\n    }\n\n    /**\n        @dev removes a given address from the whitelist\n\n        @param _address address to remove\n    */\n    function removeAddress(address _address) ownerOnly public {\n        if (!whitelist[_address]) // checks if the address is actually whitelisted\n            return;\n\n        whitelist[_address] = false;\n        emit AddressRemoval(_address);\n    }\n\n    /**\n        @dev removes a list of addresses from the whitelist\n\n        @param _addresses addresses to remove\n    */\n    function removeAddresses(address[] _addresses) public {\n        for (uint256 i = 0; i < _addresses.length; i++) {\n            removeAddress(_addresses[i]);\n        }\n    }\n}\n",
  "sourcePath": "/Users/dbuarque/workspace/bitfy/contracts/utility/Whitelist.sol",
  "compiler": {
    "name": "solc",
    "version": "0.4.24+commit.e67f0147.Emscripten.clang"
  },
  "schemaVersion": "2.0.1",
  "updatedAt": "2018-08-20T11:40:03.888Z"
}